8=FIX.4.2|9=72|35=A|34=1|49=BANZAI|52=20150414-17:33:37.525|56=FIXIMULATOR|98=0|108=30|10=011|8=FIX.4.2|9=60|35=0|34=2|49=BANZAI|52=20150414-17:34:08.382|56=FIXIMULATOR|10=223|8=FIX.4.2|9=60|35=0|34=3|49=BANZAI|52=20150414-17:34:38.503|56=FIXIMULATOR|10=222|8=FIX.4.2|9=60|35=0|34=4|49=BANZAI|52=20150414-17:35:09.380|56=FIXIMULATOR|10=225|8=FIX.4.2|9=60|35=0|34=5|49=BANZAI|52=20150414-17:35:39.502|56=FIXIMULATOR|10=225|8=FIX.4.2|9=60|35=0|34=6|49=BANZAI|52=20150414-17:36:09.503|56=FIXIMULATOR|10=225|8=FIX.4.2|9=60|35=0|34=7|49=BANZAI|52=20150414-17:36:39.503|56=FIXIMULATOR|10=229|8=FIX.4.2|9=60|35=0|34=8|49=BANZAI|52=20150414-17:37:10.503|56=FIXIMULATOR|10=220|8=FIX.4.2|9=60|35=0|34=9|49=BANZAI|52=20150414-17:37:40.503|56=FIXIMULATOR|10=224|8=FIX.4.2|9=61|35=0|34=10|49=BANZAI|52=20150414-17:38:11.503|56=FIXIMULATOR|10=008|8=FIX.4.2|9=61|35=0|34=11|49=BANZAI|52=20150414-17:38:41.503|56=FIXIMULATOR|10=012|8=FIX.4.2|9=61|35=0|34=12|49=BANZAI|52=20150414-17:39:11.503|56=FIXIMULATOR|10=011|8=FIX.4.2|9=61|35=0|34=13|49=BANZAI|52=20150414-17:39:42.503|56=FIXIMULATOR|10=016|8=FIX.4.2|9=61|35=0|34=14|49=BANZAI|52=20150414-17:40:13.503|56=FIXIMULATOR|10=007|8=FIX.4.2|9=61|35=0|34=15|49=BANZAI|52=20150414-17:40:43.503|56=FIXIMULATOR|10=011|8=FIX.4.2|9=61|35=0|34=16|49=BANZAI|52=20150414-17:41:13.503|56=FIXIMULATOR|10=010|8=FIX.4.2|9=61|35=0|34=17|49=BANZAI|52=20150414-17:41:43.503|56=FIXIMULATOR|10=014|8=FIX.4.2|9=61|35=0|34=18|49=BANZAI|52=20150414-17:42:14.504|56=FIXIMULATOR|10=015|8=FIX.4.2|9=61|35=0|34=19|49=BANZAI|52=20150414-17:42:45.471|56=FIXIMULATOR|10=023|8=FIX.4.2|9=61|35=0|34=20|49=BANZAI|52=20150414-17:43:15.503|56=FIXIMULATOR|10=009|8=FIX.4.2|9=137|35=D|34=21|49=BANZAI|52=20150414-17:43:26.924|56=FIXIMULATOR|11=1429033406908|21=1|38=200|40=1|54=1|55=IBM|59=0|60=20150414-17:43:26.924|10=138|8=FIX.4.2|9=61|35=0|34=22|49=BANZAI|52=20150414-17:43:57.502|56=FIXIMULATOR|10=016|8=FIX.4.2|9=61|35=0|34=23|49=BANZAI|52=20150414-17:44:27.503|56=FIXIMULATOR|10=016|8=FIX.4.2|9=61|35=0|34=24|49=BANZAI|52=20150414-17:44:57.503|56=FIXIMULATOR|10=020|