8=FIX.4.2|9=72|35=A|34=1|49=FIXIMULATOR|52=20150414-17:33:37.541|56=BANZAI|98=0|108=30|10=009|8=FIX.4.2|9=60|35=0|34=2|49=FIXIMULATOR|52=20150414-17:34:08.379|56=BANZAI|10=229|8=FIX.4.2|9=60|35=0|34=3|49=FIXIMULATOR|52=20150414-17:34:38.505|56=BANZAI|10=224|8=FIX.4.2|9=60|35=0|34=4|49=FIXIMULATOR|52=20150414-17:35:09.378|56=BANZAI|10=232|8=FIX.4.2|9=195|35=6|34=5|49=FIXIMULATOR|52=20150414-17:35:12.081|56=BANZAI|15=USD|22=2|23=I1429032865514|27=100|28=N|44=100|48=2005973|54=1|55=IBM|62=20150414-18:05:12.081|107=INTL BUSINESS MACHINES CORP|130=Y|10=044|8=FIX.4.2|9=60|35=0|34=6|49=FIXIMULATOR|52=20150414-17:35:42.377|56=BANZAI|10=230|8=FIX.4.2|9=60|35=0|34=7|49=FIXIMULATOR|52=20150414-17:36:12.377|56=BANZAI|10=229|8=FIX.4.2|9=60|35=0|34=8|49=FIXIMULATOR|52=20150414-17:36:42.378|56=BANZAI|10=234|8=FIX.4.2|9=60|35=0|34=9|49=FIXIMULATOR|52=20150414-17:37:13.378|56=BANZAI|10=234|8=FIX.4.2|9=61|35=0|34=10|49=FIXIMULATOR|52=20150414-17:37:43.378|56=BANZAI|10=022|8=FIX.4.2|9=61|35=0|34=11|49=FIXIMULATOR|52=20150414-17:38:13.378|56=BANZAI|10=021|8=FIX.4.2|9=61|35=0|34=12|49=FIXIMULATOR|52=20150414-17:38:43.378|56=BANZAI|10=025|8=FIX.4.2|9=61|35=0|34=13|49=FIXIMULATOR|52=20150414-17:39:13.378|56=BANZAI|10=024|8=FIX.4.2|9=61|35=0|34=14|49=FIXIMULATOR|52=20150414-17:39:43.378|56=BANZAI|10=028|8=FIX.4.2|9=61|35=0|34=15|49=FIXIMULATOR|52=20150414-17:40:13.505|56=BANZAI|10=010|8=FIX.4.2|9=61|35=0|34=16|49=FIXIMULATOR|52=20150414-17:40:43.505|56=BANZAI|10=014|8=FIX.4.2|9=61|35=0|34=17|49=FIXIMULATOR|52=20150414-17:41:14.378|56=BANZAI|10=022|8=FIX.4.2|9=214|35=6|34=18|49=FIXIMULATOR|52=20150414-17:41:37.296|56=BANZAI|15=USD|22=2|23=I1429033294598|26=I1429032865514|27=100|28=R|44=100|48=2005973|54=1|55=IBM|62=20150414-18:11:37.296|107=INTL BUSINESS MACHINES CORP|130=Y|10=014|8=FIX.4.2|9=61|35=0|34=19|49=FIXIMULATOR|52=20150414-17:42:07.377|56=BANZAI|10=026|8=FIX.4.2|9=198|35=6|34=20|49=FIXIMULATOR|52=20150414-17:42:24.408|56=BANZAI|15=USD|22=5|23=I1429033344411|27=12500|28=N|44=35.921|48=UVN.N|54=2|55=UVN|62=20150414-18:12:24.408|107=UNIVISION COMMUNICATIONS-A|130=Y|10=141|8=FIX.4.2|9=196|35=6|34=21|49=FIXIMULATOR|52=20150414-17:42:25.411|56=BANZAI|15=USD|22=5|23=I1429033345415|27=57100|28=N|44=41.0053|48=BMY.N|54=2|55=BMY|62=20150414-18:12:25.410|107=BRISTOL-MYERS SQUIBB CO|130=Y|10=139|8=FIX.4.2|9=194|35=6|34=22|49=FIXIMULATOR|52=20150414-17:42:26.413|56=BANZAI|15=USD|22=5|23=I1429033346419|27=66900|28=N|44=79.2425|48=NWL.N|54=2|55=NWL|62=20150414-18:12:26.413|107=NEWELL RUBBERMAID INC|130=N|10=255|8=FIX.4.2|9=200|35=6|34=23|49=FIXIMULATOR|52=20150414-17:42:27.416|56=BANZAI|15=USD|22=5|23=I1429033347423|27=6700|28=N|44=79.9484|48=VRX.N|54=2|55=VRX|62=20150414-18:12:27.416|107=VALEANT PHARMACEUTICALS INTE|130=Y|10=008|8=FIX.4.2|9=192|35=6|34=24|49=FIXIMULATOR|52=20150414-17:42:28.419|56=BANZAI|15=USD|22=5|23=I1429033348427|27=9700|28=N|44=61.3085|48=TRA.N|54=1|55=TRA|62=20150414-18:12:28.419|107=TERRA INDUSTRIES INC|130=N|10=164|8=FIX.4.2|9=190|35=6|34=25|49=FIXIMULATOR|52=20150414-17:42:29.422|56=BANZAI|15=USD|22=5|23=I1429033349431|27=59300|28=N|44=49.9131|48=PNM.N|54=2|55=PNM|62=20150414-18:12:29.422|107=PNM RESOURCES INC|130=Y|10=252|8=FIX.4.2|9=195|35=6|34=26|49=FIXIMULATOR|52=20150414-17:42:30.425|56=BANZAI|15=USD|22=5|23=I1429033350434|27=5200|28=N|44=69.3538|48=SPSN.OQ|54=1|55=SPSN|62=20150414-18:12:30.425|107=SPANSION INC-CLASS A|130=N|10=097|8=FIX.4.2|9=199|35=6|34=27|49=FIXIMULATOR|52=20150414-17:42:31.428|56=BANZAI|15=USD|22=5|23=I1429033351438|27=89300|28=N|44=6.5453|48=ANF.N|54=1|55=ANF|62=20150414-18:12:31.428|107=ABERCROMBIE & FITCH CO-CL A|130=N|10=154|8=FIX.4.2|9=194|35=6|34=28|49=FIXIMULATOR|52=20150414-17:42:32.431|56=BANZAI|15=USD|22=5|23=I1429033352442|27=32000|28=N|44=35.2657|48=WEC.N|54=1|55=WEC|62=20150414-18:12:32.430|107=WISCONSIN ENERGY CORP|130=Y|10=009|8=FIX.4.2|9=194|35=6|34=29|49=FIXIMULATOR|52=20150414-17:42:33.434|56=BANZAI|15=USD|22=5|23=I1429033353446|27=59900|28=N|44=78.4022|48=TXN.N|54=2|55=TXN|62=20150414-18:12:33.433|107=TEXAS INSTRUMENTS INC|130=N|10=096|8=FIX.4.2|9=191|35=6|34=30|49=FIXIMULATOR|52=20150414-17:42:34.437|56=BANZAI|15=USD|22=5|23=I1429033354450|27=73900|28=N|44=64.9536|48=HLT.N|54=1|55=HLT|62=20150414-18:12:34.436|107=HILTON HOTELS CORP|130=N|10=064|8=FIX.4.2|9=187|35=6|34=31|49=FIXIMULATOR|52=20150414-17:42:35.441|56=BANZAI|15=USD|22=5|23=I1429033355456|27=41900|28=N|44=61.9706|48=BLS.N|54=1|55=BLS|62=20150414-18:12:35.441|107=BELLSOUTH CORP|130=Y|10=047|8=FIX.4.2|9=183|35=6|34=32|49=FIXIMULATOR|52=20150414-17:42:36.444|56=BANZAI|15=USD|22=5|23=I1429033356460|27=80100|28=N|44=99.7988|48=DOV.N|54=2|55=DOV|62=20150414-18:12:36.444|107=DOVER CORP|130=Y|10=031|8=FIX.4.2|9=203|35=6|34=33|49=FIXIMULATOR|52=20150414-17:42:37.446|56=BANZAI|15=USD|22=5|23=I1429033357463|27=72200|28=N|44=44.3385|48=AMCC.OQ|54=1|55=AMCC|62=20150414-18:12:37.446|107=APPLIED MICRO CIRCUITS CORP|130=Y|10=084|8=FIX.4.2|9=200|35=6|34=34|49=FIXIMULATOR|52=20150414-17:42:38.450|56=BANZAI|15=USD|22=5|23=I1429033358467|27=91700|28=N|44=11.4038|48=UCO.N|54=2|55=UCO|62=20150414-18:12:38.449|107=UNIVERSAL COMPRESSION HLDGS|130=N|10=231|8=FIX.4.2|9=185|35=6|34=35|49=FIXIMULATOR|52=20150414-17:42:39.452|56=BANZAI|15=USD|22=5|23=I1429033359471|27=16800|28=N|44=96.4068|48=CVX.N|54=2|55=CVX|62=20150414-18:12:39.452|107=CHEVRON CORP|130=Y|10=199|8=FIX.4.2|9=188|35=6|34=36|49=FIXIMULATOR|52=20150414-17:42:40.454|56=BANZAI|15=USD|22=5|23=I1429033360474|27=36700|28=N|44=81.1238|48=PLT.N|54=1|55=PLT|62=20150414-18:12:40.454|107=PLANTRONICS INC|130=N|10=129|8=FIX.4.2|9=201|35=6|34=37|49=FIXIMULATOR|52=20150414-17:42:41.457|56=BANZAI|15=USD|22=5|23=I1429033361477|27=25200|28=N|44=85.0294|48=ENZN.OQ|54=1|55=ENZN|62=20150414-18:12:41.457|107=ENZON PHARMACEUTICALS INC|130=N|10=025|8=FIX.4.2|9=185|35=6|34=38|49=FIXIMULATOR|52=20150414-17:42:42.460|56=BANZAI|15=USD|22=5|23=I1429033362481|27=47700|28=N|44=38.6852|48=MS.N|54=2|55=MS|62=20150414-18:12:42.459|107=MORGAN STANLEY|130=Y|10=186|8=FIX.4.2|9=200|35=6|34=39|49=FIXIMULATOR|52=20150414-17:42:43.462|56=BANZAI|15=USD|22=5|23=I1429033363485|27=25200|28=N|44=68.3222|48=GOL.N|54=1|55=GOL|62=20150414-18:12:43.462|107=GOL LINHAS AEREAS INTEL-ADR|130=N|10=070|8=FIX.4.2|9=187|35=6|34=40|49=FIXIMULATOR|52=20150414-17:42:44.465|56=BANZAI|15=USD|22=5|23=I1429033364488|27=42200|28=N|44=71.1161|48=HOLX.OQ|54=1|55=HOLX|62=20150414-18:12:44.465|107=HOLOGIC INC|130=Y|10=045|8=FIX.4.2|9=204|35=6|34=41|49=FIXIMULATOR|52=20150414-17:42:45.468|56=BANZAI|15=USD|22=5|23=I1429033365492|27=10900|28=N|44=54.5781|48=ANPI.OQ|54=1|55=ANPI|62=20150414-18:12:45.468|107=ANGIOTECH PHARMACEUTICALS IN|130=N|10=198|8=FIX.4.2|9=180|35=6|34=42|49=FIXIMULATOR|52=20150414-17:42:46.470|56=BANZAI|15=USD|22=5|23=I1429033366496|27=19500|28=N|44=89.6925|48=AV.N|54=1|55=AV|62=20150414-18:12:46.470|107=AVAYA INC|130=Y|10=021|8=FIX.4.2|9=202|35=6|34=43|49=FIXIMULATOR|52=20150414-17:42:47.473|56=BANZAI|15=USD|22=5|23=I1429033367500|27=92700|28=N|44=65.8372|48=HST.N|54=2|55=HST|62=20150414-18:12:47.473|107=HOST HOTELS &amp; RESORTS INC|130=Y|10=132|8=FIX.4.2|9=191|35=6|34=44|49=FIXIMULATOR|52=20150414-17:43:03.877|56=BANZAI|15=USD|22=5|23=I1429033383904|27=9800|28=N|44=70.3226|48=WM.N|54=1|55=WM|62=20150414-18:13:03.876|107=WASHINGTON MUTUAL INC|130=N|10=113|8=FIX.4.2|9=187|35=6|34=45|49=FIXIMULATOR|52=20150414-17:43:04.879|56=BANZAI|15=USD|22=5|23=I1429033384908|27=29300|28=N|44=95.1646|48=BLS.N|54=2|55=BLS|62=20150414-18:13:04.879|107=BELLSOUTH CORP|130=N|10=072|8=FIX.4.2|9=185|35=6|34=46|49=FIXIMULATOR|52=20150414-17:43:05.882|56=BANZAI|15=USD|22=5|23=I1429033385911|27=17400|28=N|44=94.3503|48=KOMG.OQ|54=2|55=KOMG|62=20150414-18:13:05.881|107=KOMAG INC|130=Y|10=136|8=FIX.4.2|9=185|35=6|34=47|49=FIXIMULATOR|52=20150414-17:43:06.885|56=BANZAI|15=USD|22=5|23=I1429033386915|27=72300|28=N|44=37.5966|48=KOMG.OQ|54=2|55=KOMG|62=20150414-18:13:06.885|107=KOMAG INC|130=N|10=152|8=FIX.4.2|9=187|35=6|34=48|49=FIXIMULATOR|52=20150414-17:43:07.887|56=BANZAI|15=USD|22=5|23=I1429033387919|27=87200|28=N|44=97.0344|48=HLTH.OQ|54=1|55=HLTH|62=20150414-18:13:07.887|107=EMDEON CORP|130=Y|10=083|8=FIX.4.2|9=184|35=6|34=49|49=FIXIMULATOR|52=20150414-17:43:08.889|56=BANZAI|15=USD|22=5|23=I1429033388922|27=72900|28=N|44=90.658|48=DYAX.OQ|54=1|55=DYAX|62=20150414-18:13:08.889|107=DYAX CORP|130=N|10=163|8=FIX.4.2|9=204|35=6|34=50|49=FIXIMULATOR|52=20150414-17:43:09.891|56=BANZAI|15=USD|22=5|23=I1429033389925|27=70800|28=N|44=75.2894|48=SBAC.OQ|54=2|55=SBAC|62=20150414-18:13:09.891|107=SBA COMMUNICATIONS CORP-CL A|130=Y|10=152|8=FIX.4.2|9=185|35=6|34=51|49=FIXIMULATOR|52=20150414-17:43:10.893|56=BANZAI|15=USD|22=5|23=I1429033390928|27=14200|28=N|44=19.3194|48=R.N|54=1|55=R|62=20150414-18:13:10.893|107=RYDER SYSTEM INC|130=Y|10=148|8=FIX.4.2|9=191|35=6|34=52|49=FIXIMULATOR|52=20150414-17:43:11.895|56=BANZAI|15=USD|22=5|23=I1429033391931|27=28600|28=N|44=26.1618|48=RRI.N|54=2|55=RRI|62=20150414-18:13:11.895|107=RELIANT ENERGY INC|130=Y|10=062|8=FIX.4.2|9=189|35=6|34=53|49=FIXIMULATOR|52=20150414-17:43:12.898|56=BANZAI|15=USD|22=5|23=I1429033392935|27=75900|28=N|44=43.515|48=DGX.N|54=2|55=DGX|62=20150414-18:13:12.898|107=QUEST DIAGNOSTICS|130=N|10=250|8=FIX.4.2|9=179|35=6|34=54|49=FIXIMULATOR|52=20150414-17:43:13.901|56=BANZAI|15=USD|22=5|23=I1429033393939|27=12400|28=N|44=0.1563|48=AGE.N|54=2|55=AGE|62=20150414-18:13:13.901|107=EDWARDS|130=N|10=198|8=FIX.4.2|9=191|35=6|34=55|49=FIXIMULATOR|52=20150414-17:43:14.903|56=BANZAI|15=USD|22=5|23=I1429033394942|27=77100|28=N|44=99.8454|48=BIDU.OQ|54=1|55=BIDU|62=20150414-18:13:14.903|107=BAIDU.COM - ADR|130=Y|10=200|8=FIX.4.2|9=191|35=6|34=56|49=FIXIMULATOR|52=20150414-17:43:15.905|56=BANZAI|15=USD|22=5|23=I1429033395945|27=64700|28=N|44=32.1229|48=CL.N|54=1|55=CL|62=20150414-18:13:15.905|107=COLGATE-PALMOLIVE CO|130=Y|10=022|8=FIX.4.2|9=202|35=6|34=57|49=FIXIMULATOR|52=20150414-17:43:16.908|56=BANZAI|15=USD|22=5|23=I1429033396948|27=47100|28=N|44=73.3067|48=SPIL.OQ|54=2|55=SPIL|62=20150414-18:13:16.907|107=SILICONWARE PRECISION -ADR|130=N|10=096|8=FIX.4.2|9=200|35=6|34=58|49=FIXIMULATOR|52=20150414-17:43:17.910|56=BANZAI|15=USD|22=5|23=I1429033397952|27=35000|28=N|44=39.8947|48=HON.N|54=1|55=HON|62=20150414-18:13:17.910|107=HONEYWELL INTERNATIONAL INC|130=N|10=218|8=FIX.4.2|9=187|35=6|34=59|49=FIXIMULATOR|52=20150414-17:43:18.913|56=BANZAI|15=USD|22=5|23=I1429033398956|27=19500|28=N|44=39.9477|48=BLS.N|54=2|55=BLS|62=20150414-18:13:18.913|107=BELLSOUTH CORP|130=Y|10=093|8=FIX.4.2|9=202|35=6|34=60|49=FIXIMULATOR|52=20150414-17:43:19.915|56=BANZAI|15=USD|22=5|23=I1429033399958|27=45600|28=N|44=40.1082|48=BRCD.OQ|54=1|55=BRCD|62=20150414-18:13:19.915|107=BROCADE COMMUNICATIONS SYS|130=N|10=070|8=FIX.4.2|9=195|35=6|34=61|49=FIXIMULATOR|52=20150414-17:43:20.917|56=BANZAI|15=USD|22=5|23=I1429033400962|27=23200|28=N|44=93.3129|48=SNV.N|54=2|55=SNV|62=20150414-18:13:20.917|107=SYNOVUS FINANCIAL CORP|130=Y|10=142|8=FIX.4.2|9=199|35=6|34=62|49=FIXIMULATOR|52=20150414-17:43:21.920|56=BANZAI|15=USD|22=5|23=I1429033401965|27=63300|28=N|44=80.18|48=EEM.A|54=2|55=EEM|62=20150414-18:13:21.920|107=ISHARES MSCI EMERGING MKT IN|130=N|10=028|8=FIX.4.2|9=184|35=6|34=63|49=FIXIMULATOR|52=20150414-17:43:22.923|56=BANZAI|15=USD|22=5|23=I1429033402969|27=42100|28=N|44=83.8393|48=BOW.N|54=2|55=BOW|62=20150414-18:13:22.922|107=BOWATER INC|130=Y|10=075|8=FIX.4.2|9=181|35=6|34=64|49=FIXIMULATOR|52=20150414-17:43:23.925|56=BANZAI|15=USD|22=5|23=I1429033403973|27=6300|28=N|44=9.9442|48=MAS.N|54=1|55=MAS|62=20150414-18:13:23.925|107=MASCO CORP|130=N|10=135|8=FIX.4.2|9=198|35=6|34=65|49=FIXIMULATOR|52=20150414-17:43:24.928|56=BANZAI|15=USD|22=5|23=I1429033404976|27=37200|28=N|44=51.6308|48=WFR.N|54=2|55=WFR|62=20150414-18:13:24.928|107=MEMC ELECTRONIC MATERIALS|130=N|10=060|8=FIX.4.2|9=203|35=6|34=66|49=FIXIMULATOR|52=20150414-17:43:25.930|56=BANZAI|15=USD|22=5|23=I1429033405980|27=41900|28=N|44=7.2522|48=TTWO.OQ|54=2|55=TTWO|62=20150414-18:13:25.930|107=TAKE-TWO INTERACTIVE SOFTWRE|130=Y|10=016|8=FIX.4.2|9=195|35=6|34=67|49=FIXIMULATOR|52=20150414-17:43:26.932|56=BANZAI|15=USD|22=5|23=I1429033406982|27=56700|28=N|44=90.3885|48=DRC.N|54=1|55=DRC|62=20150414-18:13:26.932|107=DRESSER-RAND GROUP INC|130=N|10=060|8=FIX.4.2|9=203|35=6|34=68|49=FIXIMULATOR|52=20150414-17:43:27.934|56=BANZAI|15=USD|22=5|23=I1429033407986|27=90500|28=N|44=82.917|48=SBAC.OQ|54=1|55=SBAC|62=20150414-18:13:27.934|107=SBA COMMUNICATIONS CORP-CL A|130=N|10=085|8=FIX.4.2|9=188|35=6|34=69|49=FIXIMULATOR|52=20150414-17:43:28.935|56=BANZAI|15=USD|22=5|23=I1429033408988|27=52800|28=N|44=16.6587|48=PBCT.OQ|54=2|55=PBCT|62=20150414-18:13:28.935|107=PEOPLES BANK|130=N|10=133|8=FIX.4.2|9=194|35=6|34=70|49=FIXIMULATOR|52=20150414-17:43:29.938|56=BANZAI|15=USD|22=5|23=I1429033409991|27=21500|28=N|44=31.444|48=AKAM.OQ|54=2|55=AKAM|62=20150414-18:13:29.938|107=AKAMAI TECHNOLOGIES|130=N|10=011|8=FIX.4.2|9=191|35=6|34=71|49=FIXIMULATOR|52=20150414-17:43:30.940|56=BANZAI|15=USD|22=5|23=I1429033410994|27=35100|28=N|44=44.6128|48=ACN.N|54=2|55=ACN|62=20150414-18:13:30.940|107=ACCENTURE LTD-CL A|130=N|10=177|8=FIX.4.2|9=180|35=6|34=72|49=FIXIMULATOR|52=20150414-17:43:31.942|56=BANZAI|15=USD|22=5|23=I1429033411997|27=47400|28=N|44=62.4906|48=AG.N|54=1|55=AG|62=20150414-18:13:31.942|107=AGCO CORP|130=Y|10=235|8=FIX.4.2|9=196|35=6|34=73|49=FIXIMULATOR|52=20150414-17:43:32.944|56=BANZAI|15=USD|22=5|23=I1429033413001|27=30000|28=N|44=80.4549|48=IFSIA.OQ|54=2|55=IFSIA|62=20150414-18:13:32.944|107=INTERFACE INC-CL A|130=N|10=036|8=FIX.4.2|9=197|35=6|34=74|49=FIXIMULATOR|52=20150414-17:43:33.947|56=BANZAI|15=USD|22=5|23=I1429033414004|27=47900|28=N|44=67.5183|48=NKT.N|54=1|55=NKT|62=20150414-18:13:33.947|107=NEWKIRK REALTY TRUST INC|130=Y|10=029|8=FIX.4.2|9=203|35=6|34=75|49=FIXIMULATOR|52=20150414-17:43:34.949|56=BANZAI|15=USD|22=5|23=I1429033415008|27=82600|28=N|44=83.8895|48=XPRSA.OQ|54=2|55=XPRSA|62=20150414-18:13:34.949|107=U.S. XPRESS ENTERPRISES-A|130=Y|10=220|8=FIX.4.2|9=182|35=6|34=76|49=FIXIMULATOR|52=20150414-17:43:35.951|56=BANZAI|15=USD|22=5|23=I1429033416010|27=73600|28=N|44=99.565|48=PFE.N|54=1|55=PFE|62=20150414-18:13:35.950|107=PFIZER INC|130=Y|10=191|8=FIX.4.2|9=190|35=6|34=77|49=FIXIMULATOR|52=20150414-17:43:36.952|56=BANZAI|15=USD|22=5|23=I1429033417013|27=43600|28=N|44=54.4697|48=CKFR.OQ|54=1|55=CKFR|62=20150414-18:13:36.952|107=CHECKFREE CORP|130=Y|10=232|8=FIX.4.2|9=187|35=6|34=78|49=FIXIMULATOR|52=20150414-17:43:37.954|56=BANZAI|15=USD|22=5|23=I1429033418016|27=64800|28=N|44=95.3936|48=PLCM.OQ|54=1|55=PLCM|62=20150414-18:13:37.954|107=POLYCOM INC|130=N|10=072|8=FIX.4.2|9=184|35=6|34=79|49=FIXIMULATOR|52=20150414-17:43:38.956|56=BANZAI|15=USD|22=5|23=I1429033419019|27=39200|28=N|44=14.1642|48=GLW.N|54=1|55=GLW|62=20150414-18:13:38.956|107=CORNING INC|130=Y|10=093|8=FIX.4.2|9=190|35=6|34=80|49=FIXIMULATOR|52=20150414-17:43:39.959|56=BANZAI|15=USD|22=5|23=I1429033420023|27=68200|28=N|44=38.0311|48=CSE.N|54=2|55=CSE|62=20150414-18:13:39.959|107=CAPITALSOURCE INC|130=N|10=228|8=FIX.4.2|9=181|35=6|34=81|49=FIXIMULATOR|52=20150414-17:43:40.962|56=BANZAI|15=USD|22=5|23=I1429033421026|27=82400|28=N|44=42.9367|48=PLD.N|54=2|55=PLD|62=20150414-18:13:40.962|107=PROLOGIS|130=Y|10=149|8=FIX.4.2|9=201|35=6|34=82|49=FIXIMULATOR|52=20150414-17:43:41.964|56=BANZAI|15=USD|22=5|23=I1429033422030|27=71000|28=N|44=26.8568|48=ASX.N|54=2|55=ASX|62=20150414-18:13:41.964|107=ADVANCED SEMICONDUCTOR E-ADR|130=N|10=203|8=FIX.4.2|9=182|35=8|34=83|49=FIXIMULATOR|52=20150414-17:44:11.202|56=BANZAI|6=200|11=1429033406908|14=200|17=E1429033441046|20=0|31=200|32=200|37=O1429033406944|38=200|39=2|54=1|55=IBM|150=2|151=0|10=146|8=FIX.4.2|9=61|35=0|34=84|49=FIXIMULATOR|52=20150414-17:44:41.377|56=BANZAI|10=028|